{
  "contractName": "Color",
  "abi": [
    {
      "inputs": [],
      "stateMutability": "nonpayable",
      "type": "constructor"
    },
    {
      "anonymous": false,
      "inputs": [
        {
          "indexed": true,
          "internalType": "address",
          "name": "owner",
          "type": "address"
        },
        {
          "indexed": true,
          "internalType": "address",
          "name": "approved",
          "type": "address"
        },
        {
          "indexed": true,
          "internalType": "uint256",
          "name": "tokenId",
          "type": "uint256"
        }
      ],
      "name": "Approval",
      "type": "event"
    },
    {
      "anonymous": false,
      "inputs": [
        {
          "indexed": true,
          "internalType": "address",
          "name": "owner",
          "type": "address"
        },
        {
          "indexed": true,
          "internalType": "address",
          "name": "operator",
          "type": "address"
        },
        {
          "indexed": false,
          "internalType": "bool",
          "name": "approved",
          "type": "bool"
        }
      ],
      "name": "ApprovalForAll",
      "type": "event"
    },
    {
      "anonymous": false,
      "inputs": [
        {
          "indexed": true,
          "internalType": "address",
          "name": "from",
          "type": "address"
        },
        {
          "indexed": true,
          "internalType": "address",
          "name": "to",
          "type": "address"
        },
        {
          "indexed": true,
          "internalType": "uint256",
          "name": "tokenId",
          "type": "uint256"
        }
      ],
      "name": "Transfer",
      "type": "event"
    },
    {
      "inputs": [
        {
          "internalType": "address",
          "name": "to",
          "type": "address"
        },
        {
          "internalType": "uint256",
          "name": "tokenId",
          "type": "uint256"
        }
      ],
      "name": "approve",
      "outputs": [],
      "stateMutability": "nonpayable",
      "type": "function"
    },
    {
      "inputs": [
        {
          "internalType": "address",
          "name": "owner",
          "type": "address"
        }
      ],
      "name": "balanceOf",
      "outputs": [
        {
          "internalType": "uint256",
          "name": "",
          "type": "uint256"
        }
      ],
      "stateMutability": "view",
      "type": "function",
      "constant": true
    },
    {
      "inputs": [
        {
          "internalType": "uint256",
          "name": "",
          "type": "uint256"
        }
      ],
      "name": "colors",
      "outputs": [
        {
          "internalType": "string",
          "name": "",
          "type": "string"
        }
      ],
      "stateMutability": "view",
      "type": "function",
      "constant": true
    },
    {
      "inputs": [
        {
          "internalType": "uint256",
          "name": "tokenId",
          "type": "uint256"
        }
      ],
      "name": "getApproved",
      "outputs": [
        {
          "internalType": "address",
          "name": "",
          "type": "address"
        }
      ],
      "stateMutability": "view",
      "type": "function",
      "constant": true
    },
    {
      "inputs": [
        {
          "internalType": "address",
          "name": "owner",
          "type": "address"
        },
        {
          "internalType": "address",
          "name": "operator",
          "type": "address"
        }
      ],
      "name": "isApprovedForAll",
      "outputs": [
        {
          "internalType": "bool",
          "name": "",
          "type": "bool"
        }
      ],
      "stateMutability": "view",
      "type": "function",
      "constant": true
    },
    {
      "inputs": [],
      "name": "name",
      "outputs": [
        {
          "internalType": "string",
          "name": "",
          "type": "string"
        }
      ],
      "stateMutability": "view",
      "type": "function",
      "constant": true
    },
    {
      "inputs": [
        {
          "internalType": "uint256",
          "name": "tokenId",
          "type": "uint256"
        }
      ],
      "name": "ownerOf",
      "outputs": [
        {
          "internalType": "address",
          "name": "",
          "type": "address"
        }
      ],
      "stateMutability": "view",
      "type": "function",
      "constant": true
    },
    {
      "inputs": [
        {
          "internalType": "address",
          "name": "from",
          "type": "address"
        },
        {
          "internalType": "address",
          "name": "to",
          "type": "address"
        },
        {
          "internalType": "uint256",
          "name": "tokenId",
          "type": "uint256"
        }
      ],
      "name": "safeTransferFrom",
      "outputs": [],
      "stateMutability": "nonpayable",
      "type": "function"
    },
    {
      "inputs": [
        {
          "internalType": "address",
          "name": "from",
          "type": "address"
        },
        {
          "internalType": "address",
          "name": "to",
          "type": "address"
        },
        {
          "internalType": "uint256",
          "name": "tokenId",
          "type": "uint256"
        },
        {
          "internalType": "bytes",
          "name": "_data",
          "type": "bytes"
        }
      ],
      "name": "safeTransferFrom",
      "outputs": [],
      "stateMutability": "nonpayable",
      "type": "function"
    },
    {
      "inputs": [
        {
          "internalType": "address",
          "name": "operator",
          "type": "address"
        },
        {
          "internalType": "bool",
          "name": "approved",
          "type": "bool"
        }
      ],
      "name": "setApprovalForAll",
      "outputs": [],
      "stateMutability": "nonpayable",
      "type": "function"
    },
    {
      "inputs": [
        {
          "internalType": "bytes4",
          "name": "interfaceId",
          "type": "bytes4"
        }
      ],
      "name": "supportsInterface",
      "outputs": [
        {
          "internalType": "bool",
          "name": "",
          "type": "bool"
        }
      ],
      "stateMutability": "view",
      "type": "function",
      "constant": true
    },
    {
      "inputs": [],
      "name": "symbol",
      "outputs": [
        {
          "internalType": "string",
          "name": "",
          "type": "string"
        }
      ],
      "stateMutability": "view",
      "type": "function",
      "constant": true
    },
    {
      "inputs": [
        {
          "internalType": "uint256",
          "name": "index",
          "type": "uint256"
        }
      ],
      "name": "tokenByIndex",
      "outputs": [
        {
          "internalType": "uint256",
          "name": "",
          "type": "uint256"
        }
      ],
      "stateMutability": "view",
      "type": "function",
      "constant": true
    },
    {
      "inputs": [
        {
          "internalType": "address",
          "name": "owner",
          "type": "address"
        },
        {
          "internalType": "uint256",
          "name": "index",
          "type": "uint256"
        }
      ],
      "name": "tokenOfOwnerByIndex",
      "outputs": [
        {
          "internalType": "uint256",
          "name": "",
          "type": "uint256"
        }
      ],
      "stateMutability": "view",
      "type": "function",
      "constant": true
    },
    {
      "inputs": [
        {
          "internalType": "uint256",
          "name": "tokenId",
          "type": "uint256"
        }
      ],
      "name": "tokenURI",
      "outputs": [
        {
          "internalType": "string",
          "name": "",
          "type": "string"
        }
      ],
      "stateMutability": "view",
      "type": "function",
      "constant": true
    },
    {
      "inputs": [],
      "name": "totalSupply",
      "outputs": [
        {
          "internalType": "uint256",
          "name": "",
          "type": "uint256"
        }
      ],
      "stateMutability": "view",
      "type": "function",
      "constant": true
    },
    {
      "inputs": [
        {
          "internalType": "address",
          "name": "from",
          "type": "address"
        },
        {
          "internalType": "address",
          "name": "to",
          "type": "address"
        },
        {
          "internalType": "uint256",
          "name": "tokenId",
          "type": "uint256"
        }
      ],
      "name": "transferFrom",
      "outputs": [],
      "stateMutability": "nonpayable",
      "type": "function"
    },
    {
      "inputs": [
        {
          "internalType": "string",
          "name": "_color",
          "type": "string"
        }
      ],
      "name": "awardItem",
      "outputs": [
        {
          "internalType": "uint256",
          "name": "",
          "type": "uint256"
        }
      ],
      "stateMutability": "nonpayable",
      "type": "function"
    }
  ],
  "bytecode": "0x60806040523480156200001157600080fd5b50604080518082018252600d81526c10dbdb1bdc931a599948139195609a1b60208083019182528351808501909452600484526321a6232760e11b908401528151919291620000639160009162000082565b5080516200007990600190602084019062000082565b50505062000165565b828054620000909062000128565b90600052602060002090601f016020900481019282620000b45760008555620000ff565b82601f10620000cf57805160ff1916838001178555620000ff565b82800160010185558215620000ff579182015b82811115620000ff578251825591602001919060010190620000e2565b506200010d92915062000111565b5090565b5b808211156200010d576000815560010162000112565b6002810460018216806200013d57607f821691505b602082108114156200015f57634e487b7160e01b600052602260045260246000fd5b50919050565b611bc780620001756000396000f3fe608060405234801561001057600080fd5b50600436106101165760003560e01c80636352211e116100a2578063b88d4fde11610071578063b88d4fde14610230578063bd11f69d14610243578063c87b56dd14610256578063e97a186a14610269578063e985e9c51461027c57610116565b80636352211e146101ef57806370a082311461020257806395d89b4114610215578063a22cb4651461021d57610116565b806318160ddd116100e957806318160ddd1461018e57806323b872dd146101a35780632f745c59146101b657806342842e0e146101c95780634f6ccce7146101dc57610116565b806301ffc9a71461011b57806306fdde0314610144578063081812fc14610159578063095ea7b314610179575b600080fd5b61012e61012936600461141f565b61028f565b60405161013b919061157d565b60405180910390f35b61014c6102bc565b60405161013b9190611588565b61016c61016736600461149d565b61034e565b60405161013b919061152c565b61018c6101873660046113f6565b61039a565b005b610196610432565b60405161013b9190611a54565b61018c6101b1366004611308565b610438565b6101966101c43660046113f6565b610470565b61018c6101d7366004611308565b6104c2565b6101966101ea36600461149d565b6104dd565b61016c6101fd36600461149d565b610538565b6101966102103660046112bc565b61056d565b61014c6105b1565b61018c61022b3660046113bc565b6105c0565b61018c61023e366004611343565b61068e565b61014c61025136600461149d565b6106cd565b61014c61026436600461149d565b610779565b610196610277366004611457565b6107fc565b61012e61028a3660046112d6565b6108e0565b60006001600160e01b0319821663780e9d6360e01b14806102b457506102b48261090e565b90505b919050565b6060600080546102cb90611acc565b80601f01602080910402602001604051908101604052809291908181526020018280546102f790611acc565b80156103445780601f1061031957610100808354040283529160200191610344565b820191906000526020600020905b81548152906001019060200180831161032757829003601f168201915b5050505050905090565b60006103598261094e565b61037e5760405162461bcd60e51b81526004016103759061185b565b60405180910390fd5b506000908152600460205260409020546001600160a01b031690565b60006103a582610538565b9050806001600160a01b0316836001600160a01b031614156103d95760405162461bcd60e51b81526004016103759061193f565b806001600160a01b03166103eb61096b565b6001600160a01b0316148061040757506104078161028a61096b565b6104235760405162461bcd60e51b815260040161037590611736565b61042d838361096f565b505050565b60085490565b61044961044361096b565b826109dd565b6104655760405162461bcd60e51b8152600401610375906119b7565b61042d838383610a62565b600061047b8361056d565b82106104995760405162461bcd60e51b81526004016103759061159b565b506001600160a01b03919091166000908152600660209081526040808320938352929052205490565b61042d8383836040518060200160405280600081525061068e565b60006104e7610432565b82106105055760405162461bcd60e51b815260040161037590611a08565b6008828154811061052657634e487b7160e01b600052603260045260246000fd5b90600052602060002001549050919050565b6000818152600260205260408120546001600160a01b0316806102b45760405162461bcd60e51b8152600401610375906117dd565b60006001600160a01b0382166105955760405162461bcd60e51b815260040161037590611793565b506001600160a01b031660009081526003602052604090205490565b6060600180546102cb90611acc565b6105c861096b565b6001600160a01b0316826001600160a01b031614156105f95760405162461bcd60e51b8152600401610375906116b3565b806005600061060661096b565b6001600160a01b03908116825260208083019390935260409182016000908120918716808252919093529120805460ff19169215159290921790915561064a61096b565b6001600160a01b03167f17307eab39ab6107e8899845ad3d59bd9653f200f220920489ca2b5937696c3183604051610682919061157d565b60405180910390a35050565b61069f61069961096b565b836109dd565b6106bb5760405162461bcd60e51b8152600401610375906119b7565b6106c784848484610b8f565b50505050565b600b81815481106106dd57600080fd5b9060005260206000200160009150905080546106f890611acc565b80601f016020809104026020016040519081016040528092919081815260200182805461072490611acc565b80156107715780601f1061074657610100808354040283529160200191610771565b820191906000526020600020905b81548152906001019060200180831161075457829003601f168201915b505050505081565b60606107848261094e565b6107a05760405162461bcd60e51b8152600401610375906118f0565b60006107aa610bc2565b905060008151116107ca57604051806020016040528060008152506107f5565b806107d484610bd4565b6040516020016107e59291906114fd565b6040516020818303038152906040525b9392505050565b6000600c8260405161080e91906114e1565b9081526040519081900360200190205460ff161561083e5760405162461bcd60e51b815260040161037590611980565b610848600a610cef565b6000610854600a610cf8565b600b8054600181018255600091909152845191925061089c917f0175b7a638427703f0dbe7bb9bbf987a2551717b34e79f33b5b1008d1fa01db990910190602086019061119c565b506108a73382610cfc565b6001600c846040516108b991906114e1565b908152604051908190036020019020805491151560ff199092169190911790559050919050565b6001600160a01b03918216600090815260056020908152604080832093909416825291909152205460ff1690565b60006001600160e01b031982166380ac58cd60e01b148061093f57506001600160e01b03198216635b5e139f60e01b145b806102b457506102b482610ddb565b6000908152600260205260409020546001600160a01b0316151590565b3390565b600081815260046020526040902080546001600160a01b0319166001600160a01b03841690811790915581906109a482610538565b6001600160a01b03167f8c5be1e5ebec7d5bd14f71427d1e84f3dd0314c0f7b2291e5b200ac8c7c3b92560405160405180910390a45050565b60006109e88261094e565b610a045760405162461bcd60e51b8152600401610375906116ea565b6000610a0f83610538565b9050806001600160a01b0316846001600160a01b03161480610a4a5750836001600160a01b0316610a3f8461034e565b6001600160a01b0316145b80610a5a5750610a5a81856108e0565b949350505050565b826001600160a01b0316610a7582610538565b6001600160a01b031614610a9b5760405162461bcd60e51b8152600401610375906118a7565b6001600160a01b038216610ac15760405162461bcd60e51b81526004016103759061166f565b610acc838383610df4565b610ad760008261096f565b6001600160a01b0383166000908152600360205260408120805460019290610b00908490611a89565b90915550506001600160a01b0382166000908152600360205260408120805460019290610b2e908490611a5d565b909155505060008181526002602052604080822080546001600160a01b0319166001600160a01b0386811691821790925591518493918716917fddf252ad1be2c89b69c2b068fc378daa952ba7f163c4a11628f55a4df523b3ef91a4505050565b610b9a848484610a62565b610ba684848484610e7d565b6106c75760405162461bcd60e51b8152600401610375906115e6565b60408051602081019091526000815290565b606081610bf957506040805180820190915260018152600360fc1b60208201526102b7565b8160005b8115610c235780610c0d81611b07565b9150610c1c9050600a83611a75565b9150610bfd565b60008167ffffffffffffffff811115610c4c57634e487b7160e01b600052604160045260246000fd5b6040519080825280601f01601f191660200182016040528015610c76576020820181803683370190505b5090505b8415610a5a57610c8b600183611a89565b9150610c98600a86611b22565b610ca3906030611a5d565b60f81b818381518110610cc657634e487b7160e01b600052603260045260246000fd5b60200101906001600160f81b031916908160001a905350610ce8600a86611a75565b9450610c7a565b80546001019055565b5490565b6001600160a01b038216610d225760405162461bcd60e51b815260040161037590611826565b610d2b8161094e565b15610d485760405162461bcd60e51b815260040161037590611638565b610d5460008383610df4565b6001600160a01b0382166000908152600360205260408120805460019290610d7d908490611a5d565b909155505060008181526002602052604080822080546001600160a01b0319166001600160a01b03861690811790915590518392907fddf252ad1be2c89b69c2b068fc378daa952ba7f163c4a11628f55a4df523b3ef908290a45050565b6001600160e01b031981166301ffc9a760e01b14919050565b610dff83838361042d565b6001600160a01b038316610e1b57610e1681610f98565b610e3e565b816001600160a01b0316836001600160a01b031614610e3e57610e3e8382610fdc565b6001600160a01b038216610e5a57610e5581611079565b61042d565b826001600160a01b0316826001600160a01b03161461042d5761042d8282611152565b6000610e91846001600160a01b0316611196565b15610f8d57836001600160a01b031663150b7a02610ead61096b565b8786866040518563ffffffff1660e01b8152600401610ecf9493929190611540565b602060405180830381600087803b158015610ee957600080fd5b505af1925050508015610f19575060408051601f3d908101601f19168201909252610f169181019061143b565b60015b610f73573d808015610f47576040519150601f19603f3d011682016040523d82523d6000602084013e610f4c565b606091505b508051610f6b5760405162461bcd60e51b8152600401610375906115e6565b805181602001fd5b6001600160e01b031916630a85bd0160e11b149050610a5a565b506001949350505050565b600880546000838152600960205260408120829055600182018355919091527ff3f7a9fe364faab93b216da50a3214154f22a0a2b415b23a84c8169e8b636ee30155565b60006001610fe98461056d565b610ff39190611a89565b600083815260076020526040902054909150808214611046576001600160a01b03841660009081526006602090815260408083208584528252808320548484528184208190558352600790915290208190555b5060009182526007602090815260408084208490556001600160a01b039094168352600681528383209183525290812055565b60085460009061108b90600190611a89565b600083815260096020526040812054600880549394509092849081106110c157634e487b7160e01b600052603260045260246000fd5b9060005260206000200154905080600883815481106110f057634e487b7160e01b600052603260045260246000fd5b600091825260208083209091019290925582815260099091526040808220849055858252812055600880548061113657634e487b7160e01b600052603160045260246000fd5b6001900381819060005260206000200160009055905550505050565b600061115d8361056d565b6001600160a01b039093166000908152600660209081526040808320868452825280832085905593825260079052919091209190915550565b3b151590565b8280546111a890611acc565b90600052602060002090601f0160209004810192826111ca5760008555611210565b82601f106111e357805160ff1916838001178555611210565b82800160010185558215611210579182015b828111156112105782518255916020019190600101906111f5565b5061121c929150611220565b5090565b5b8082111561121c5760008155600101611221565b600067ffffffffffffffff8084111561125057611250611b62565b604051601f8501601f19168101602001828111828210171561127457611274611b62565b60405284815291508183850186101561128c57600080fd5b8484602083013760006020868301015250509392505050565b80356001600160a01b03811681146102b757600080fd5b6000602082840312156112cd578081fd5b6107f5826112a5565b600080604083850312156112e8578081fd5b6112f1836112a5565b91506112ff602084016112a5565b90509250929050565b60008060006060848603121561131c578081fd5b611325846112a5565b9250611333602085016112a5565b9150604084013590509250925092565b60008060008060808587031215611358578081fd5b611361856112a5565b935061136f602086016112a5565b925060408501359150606085013567ffffffffffffffff811115611391578182fd5b8501601f810187136113a1578182fd5b6113b087823560208401611235565b91505092959194509250565b600080604083850312156113ce578182fd5b6113d7836112a5565b9150602083013580151581146113eb578182fd5b809150509250929050565b60008060408385031215611408578182fd5b611411836112a5565b946020939093013593505050565b600060208284031215611430578081fd5b81356107f581611b78565b60006020828403121561144c578081fd5b81516107f581611b78565b600060208284031215611468578081fd5b813567ffffffffffffffff81111561147e578182fd5b8201601f8101841361148e578182fd5b610a5a84823560208401611235565b6000602082840312156114ae578081fd5b5035919050565b600081518084526114cd816020860160208601611aa0565b601f01601f19169290920160200192915050565b600082516114f3818460208701611aa0565b9190910192915050565b6000835161150f818460208801611aa0565b835190830190611523818360208801611aa0565b01949350505050565b6001600160a01b0391909116815260200190565b6001600160a01b0385811682528416602082015260408101839052608060608201819052600090611573908301846114b5565b9695505050505050565b901515815260200190565b6000602082526107f560208301846114b5565b6020808252602b908201527f455243373231456e756d657261626c653a206f776e657220696e646578206f7560408201526a74206f6620626f756e647360a81b606082015260800190565b60208082526032908201527f4552433732313a207472616e7366657220746f206e6f6e20455243373231526560408201527131b2b4bb32b91034b6b83632b6b2b73a32b960711b606082015260800190565b6020808252601c908201527f4552433732313a20746f6b656e20616c7265616479206d696e74656400000000604082015260600190565b60208082526024908201527f4552433732313a207472616e7366657220746f20746865207a65726f206164646040820152637265737360e01b606082015260800190565b60208082526019908201527f4552433732313a20617070726f766520746f2063616c6c657200000000000000604082015260600190565b6020808252602c908201527f4552433732313a206f70657261746f7220717565727920666f72206e6f6e657860408201526b34b9ba32b73a103a37b5b2b760a11b606082015260800190565b60208082526038908201527f4552433732313a20617070726f76652063616c6c6572206973206e6f74206f7760408201527f6e6572206e6f7220617070726f76656420666f7220616c6c0000000000000000606082015260800190565b6020808252602a908201527f4552433732313a2062616c616e636520717565727920666f7220746865207a65604082015269726f206164647265737360b01b606082015260800190565b60208082526029908201527f4552433732313a206f776e657220717565727920666f72206e6f6e657869737460408201526832b73a103a37b5b2b760b91b606082015260800190565b6020808252818101527f4552433732313a206d696e7420746f20746865207a65726f2061646472657373604082015260600190565b6020808252602c908201527f4552433732313a20617070726f76656420717565727920666f72206e6f6e657860408201526b34b9ba32b73a103a37b5b2b760a11b606082015260800190565b60208082526029908201527f4552433732313a207472616e73666572206f6620746f6b656e2074686174206960408201526839903737ba1037bbb760b91b606082015260800190565b6020808252602f908201527f4552433732314d657461646174613a2055524920717565727920666f72206e6f60408201526e3732bc34b9ba32b73a103a37b5b2b760891b606082015260800190565b60208082526021908201527f4552433732313a20617070726f76616c20746f2063757272656e74206f776e656040820152603960f91b606082015260800190565b6020808252601a908201527f546865206974656d20697320616c72656164792065786973742e000000000000604082015260600190565b60208082526031908201527f4552433732313a207472616e736665722063616c6c6572206973206e6f74206f6040820152701ddb995c881b9bdc88185c1c1c9bdd9959607a1b606082015260800190565b6020808252602c908201527f455243373231456e756d657261626c653a20676c6f62616c20696e646578206f60408201526b7574206f6620626f756e647360a01b606082015260800190565b90815260200190565b60008219821115611a7057611a70611b36565b500190565b600082611a8457611a84611b4c565b500490565b600082821015611a9b57611a9b611b36565b500390565b60005b83811015611abb578181015183820152602001611aa3565b838111156106c75750506000910152565b600281046001821680611ae057607f821691505b60208210811415611b0157634e487b7160e01b600052602260045260246000fd5b50919050565b6000600019821415611b1b57611b1b611b36565b5060010190565b600082611b3157611b31611b4c565b500690565b634e487b7160e01b600052601160045260246000fd5b634e487b7160e01b600052601260045260246000fd5b634e487b7160e01b600052604160045260246000fd5b6001600160e01b031981168114611b8e57600080fd5b5056fea2646970667358221220ea081bf71a837c40fb3ada90bc6e7c82573f7db78581022b42cced92255b761b64736f6c63430008000033",
  "immutableReferences": {},
  "source": "pragma solidity ^0.8.0;\n\nimport \"@openzeppelin/contracts/token/ERC721/ERC721.sol\";\nimport \"@openzeppelin/contracts/utils/Counters.sol\";\nimport \"@openzeppelin/contracts/token/ERC721/extensions/ERC721Enumerable.sol\";\n\ncontract Color is ERC721Enumerable {\n\n    using Counters for Counters.Counter;\n    Counters.Counter private _tokenIds;\n\n    string[] public colors;\n    mapping(string => bool) _existingColor;\n\n    constructor() ERC721(\"ColorLife NFT\", \"CLFN\") {}\n\n    function awardItem( string memory _color) public returns (uint256) {\n        require(!_existingColor[_color], \"The item is already exist.\");\n        _tokenIds.increment();\n        uint256 newItemId = _tokenIds.current();\n        colors.push(_color);\n        _mint(msg.sender, newItemId);\n        _existingColor[_color] = true;\n        return newItemId;\n    }\n}\n\n/* TODO \n*** 0. frontend + account collection.\n*** 1. ownable & transfer NTF token \n*** 2. set metadata/ image url/ central backend hosting\n*** 3. decentralbackend & oracal\n*/",
  "sourcePath": "/Users/macbookpro4eric/Projects/blockchain/project3_ERC721/contracts/Color.sol",
  "compiler": {
    "name": "solc",
    "version": "0.8.0+commit.c7dfd78e.Emscripten.clang"
  },
  "schemaVersion": "3.3.4",
  "updatedAt": "2021-04-04T14:40:32.423Z",
  "networkType": "ethereum",
  "devdoc": {
    "kind": "dev",
    "methods": {
      "approve(address,uint256)": {
        "details": "See {IERC721-approve}."
      },
      "balanceOf(address)": {
        "details": "See {IERC721-balanceOf}."
      },
      "getApproved(uint256)": {
        "details": "See {IERC721-getApproved}."
      },
      "isApprovedForAll(address,address)": {
        "details": "See {IERC721-isApprovedForAll}."
      },
      "name()": {
        "details": "See {IERC721Metadata-name}."
      },
      "ownerOf(uint256)": {
        "details": "See {IERC721-ownerOf}."
      },
      "safeTransferFrom(address,address,uint256)": {
        "details": "See {IERC721-safeTransferFrom}."
      },
      "safeTransferFrom(address,address,uint256,bytes)": {
        "details": "See {IERC721-safeTransferFrom}."
      },
      "setApprovalForAll(address,bool)": {
        "details": "See {IERC721-setApprovalForAll}."
      },
      "supportsInterface(bytes4)": {
        "details": "See {IERC165-supportsInterface}."
      },
      "symbol()": {
        "details": "See {IERC721Metadata-symbol}."
      },
      "tokenByIndex(uint256)": {
        "details": "See {IERC721Enumerable-tokenByIndex}."
      },
      "tokenOfOwnerByIndex(address,uint256)": {
        "details": "See {IERC721Enumerable-tokenOfOwnerByIndex}."
      },
      "tokenURI(uint256)": {
        "details": "See {IERC721Metadata-tokenURI}."
      },
      "totalSupply()": {
        "details": "See {IERC721Enumerable-totalSupply}."
      },
      "transferFrom(address,address,uint256)": {
        "details": "See {IERC721-transferFrom}."
      }
    },
    "version": 1
  },
  "userdoc": {
    "kind": "user",
    "methods": {},
    "version": 1
  }
}